:020000040800F2
:10000000385B00207902000887510008C70A000801
:1000100085510008990700080556000800000000F7
:10002000000000000000000000000000E1010008E6
:100030009B07000800000000250200086D5300081F
:10004000930200089302000893020008930200083C
:1000500093020008930200089D070008930200081D
:10006000930200089302000893020008930200081C
:10007000930200089302000893020008930200080C
:1000800093020008930200089302000893020008FC
:100090009302000893020008930200082908000850
:1000A00093020008930200089302000893020008DC
:1000B00093020008D153000893020008930200083D
:1000C00093020008930200089302000893020008BC
:1000D0009302000869540008930200089302000884
:1000E000ED0700089302000893020008930200083D
:1000F000930200089302000893020008930200088C
:1001000093020008930200080D54000893020008AF
:10011000930200089302000893020008930200086B
:10012000930200089302000893020008930200085B
:1001300000F002F800F045F80AA090E8000C8244B4
:100140008344AAF10107DA4501D100F03AF8AFF291
:10015000090EBAE80F0013F0010F18BFFB1A43F0A5
:1001600001031847808D0000A08D0000103A24BFC5
:1001700078C878C1FAD8520724BF30C830C144BF0C
:1001800004680C607047000000230024002500264E
:10019000103A28BF78C1FBD8520728BF30C148BFEA
:1001A0000B607047642900F0F380782900F02C81FF
:1001B000732900F02982002070471FB51FBD10B5BC
:1001C00010BD00F0B6FA1146FFF7F7FF05F0BEFAD2
:1001D00000F0D4FA03B4FFF7F2FF03BC05F013FA02
:1001E000224B19680868B0E8F00F80F30988BFF364
:1001F0006F8F4FF0000080F311884EF00D0E7047A6
:100200000000000006480068006880F3088862B6B5
:1002100061B6BFF34F8FBFF36F8F00DF00BF00BF2A
:1002200008ED00E0EFF30980BFF36F8F0F4B1A6802
:1002300020E9F00F106008B54FF0500080F31188EE
:10024000BFF34F8FBFF36F8F06F038FB4FF0000006
:1002500080F31188BDE8084019680868B0E8F00F1D
:1002600080F30988BFF36F8F704700BF4000002004
:10027000EFF30580704700000948804709480047B0
:10028000FEE7FEE7FEE7FEE7FEE7FEE7FEE7FEE746
:10029000FEE7FEE704480549054A064B70470000A3
:1002A000815300083101000838550020385B0020D8
:1002B0003857002038570020704700000FB4044919
:1002C00010B503AA029800F0A3F910BC5DF814FB66
:1002D000280000202DE9F0410E460446002020624F
:1002E0002046E168884730B3252805D0D4E90121AC
:1002F0009047206A401CF2E7E168204600278847C3
:10030000050018D0A5F14100192802D820354FF476
:1003100000673246294620462760FFF743FF40B179
:10032000012804D0F61D26F007060836D8E7361D4A
:10033000D6E72846DAE7206ABDE8F08170B50C46BA
:100340000546012A05D02878800600D5EA690023F1
:1003500002E0012305E05B1C934202D2E05C00282E
:10036000F9D1A869E618C01AA861286A1844286259
:100370002846AFF3008004E0D5E9012114F8010B11
:100380009047B442F8D32846AFF3008070BD000018
:100390002DE9F0410646002410687529314616A55E
:1003A00010D0AFF30080002802DA404213A507E026
:1003B00031688A0701D512A502E0490704D511A5C5
:1003C000012401E0AFF3008000210A2206F1240796
:1003D00009E0B0FBF2FCB0FBF2F302FB1C00303092
:1003E00078541846491C0028F3D123462A46304643
:1003F000BDE8F04100F085B8000000002D000000CD
:100400002B0000002000000070B504460D46214678
:100410001068AFF300802188090502D50F4A7A449D
:1004200002E00E4A7A440E32002104F1240305E072
:1004300000F00F060009965D5E54491C0028F7D1B4
:1004400020780023000704D5702D02D009B10223C3
:1004500011322046BDE8704000F053B89A8A00007F
:10046000032A40F2308010F0030C00F0158011F8E0
:10047000013BBCF1020F624498BF11F801CB00F8B8
:10048000013B38BF11F8013BA2F1040298BF00F80C
:1004900001CB38BF00F8013B11F0030300F0CA8024
:1004A000083AC0F0088051F8043B083A51F804CBF0
:1004B000A0E80810F5E7121D5CBF51F8043B40F8B6
:1004C000043BAFF30080D20724BF11F8013B11F8C1
:1004D00001CB48BF11F8012B24BF00F8013B00F805
:1004E00001CB48BF00F8012B704702F0FF0343EA3D
:1004F000032242EA024200F0D1B8704770477047C9
:1005000070472DE9F0470D4699469246044600F1A2
:1005100024080168880604D5E06921F010012160F3
:1005200000E00120A84201DD471B00E00027A1698F
:100530007A1902EB0900081AA0612078C00602D4DB
:100540002046AFF30080002608E0D4E901211AF824
:1005500006009047206A401C761C20624E45F4DB62
:100560002078C0060AD52046AFF3008006E0D4E923
:10057000012130209047206A401C2062381EA7F1DC
:100580000107F4DC07E0D4E9012118F805009047E1
:10059000206A401C2062281EA5F10105F3DC2046DC
:1005A000AFF300802078000602D50220BDE8F08776
:1005B0000120FBE701694A1C02610878704700B519
:1005C0008FB0CDE901310021059105497944CDE98C
:1005D000031011466846FFF77DFE0FB000BD000016
:1005E000E5FFFFFF10B5436913B1AFF3008001E0F1
:1005F000FFF7A4FE012010BD127800F124010A705B
:1006000000224A700122EDE711684FF0FF32E9E75E
:10061000074B70B50D467B44FFF7D1FF04462846D3
:1006200000F05CF810B14FF0FF3070BD204670BD97
:10063000BF50000010B5203AC0F00B80B1E8185050
:10064000203AA0E81850B1E81850A0E81850BFF4BC
:10065000F5AF5FEA027C24BFB1E81850A0E818505B
:1006600044BF18C918C0BDE810405FEA827C24BFAF
:1006700051F8043B40F8043B08BF7047D20728BF3D
:1006800031F8023B48BF11F8012B28BF20F8023B8C
:1006900048BF00F8012B70474FF000020429C0F05A
:1006A000128010F0030C00F01F80CCF1040CBCF1A0
:1006B000020F18BF00F8012BA8BF20F8022BA1EBF6
:1006C0000C0100F011B85FEAC17C24BF00F8012BD7
:1006D00000F8012B48BF00F8012B7047007B00F0A9
:1006E000800070474FF0000200B5134694469646CE
:1006F000203922BFA0E80C50A0E80C50B1F1200135
:10070000BFF4F7AF090728BFA0E80C5048BF0CC0E2
:100710005DF804EB890028BF40F8042B08BF704740
:1007200048BF20F8022B11F0804F18BF00F8012BB2
:100730007047754600F02CF8AE46050069465346F2
:1007400020F00700854618B020B5FFF7A3FDBDE8EF
:1007500020404FF000064FF000074FF000084FF028
:10076000000B21F00701AC46ACE8C009ACE8C009B9
:10077000ACE8C009ACE8C0098D46704710B5044626
:10078000AFF300802046BDE81040FFF723BD000016
:1007900000487047D8540020FEE7704710B50A2083
:1007A00004F08CFF01210E4800F084F901280DD1DE
:1007B0000C49D1F8A00170B10020C1F8A0010A498C
:1007C000D1F8880148B10020C1F88801BDE8104087
:1007D000012000F0A3B80120EFE70120F4E70000BA
:1007E00000080140000021420080224210B50A208A
:1007F00004F064FF4FF400442146094800F05AF920
:1008000030B9084BD3F8880138B10022C3F88821E9
:100810002046BDE8104000F081B80122F6E7000054
:10082000000801400080224210B50A2004F046FF73
:100830002021094800F03EF930B90849D1F8A0015B
:1008400038B10020C1F8A001BDE81040202000F020
:1008500065B80120F6E700000010014000002142C9
:10086000FEB50121084604F0CBFC00F02DF905216E
:10087000022000F091F8002520208DF804500C266D
:1008800000908DF8056001248DF80640684600F060
:100890004BF80F21002000F07FF8E0038DF80450A2
:1008A00000908DF805608DF80640684600F03CF831
:1008B0000021084600F070F88DF8045008278DF8E4
:1008C000057000948DF80640684600F02DF8062665
:1008D0008DF808608DF809708DF80A508DF80B407E
:1008E00002A804F051FC17208DF8080009208DF8AB
:1008F00009008DF80A508DF80B4002A804F044FC62
:1009000028208DF808008DF809608DF80A508DF8C0
:100910000B4002A804F038FCFEBD0000014908604D
:10092000704700001404014030B51A4A8379016809
:1009300053B313688B431360111D0B680468A34302
:100940000B60017911440B68046823430B60114B61
:10095000083319680468A14319601C1D21680568E3
:10096000A94321604179102905D011440A68006823
:1009700002430A6030BD196802681143196021689A
:1009800000680143216030BD0079104402688A4349
:10099000026030BD0004014010B58A0721F0030455
:1009A0000649120F21440F238C6893409C438C60AE
:1009B0008B68904003438B6010BD00000000014035
:1009C000F0B5CC78002204F00F03E40601D58C7852
:1009D00023430C784FF00F0C14F0FF0F4FF0010E73
:1009E0001BD005680E880EFA02F42640A64210D1EC
:1009F00096000CFA06F725EA070703FA06F5CE7803
:100A00003D43282E02D0482E02D002E0446100E08F
:100A10000461521C082AE5D305600A88FF2A1CD904
:100A20004468002202F108060EFA06F50E882E40F0
:100A3000AE420ED196000CFA06F7BC4303FA06F755
:100A4000CE783C43282E00D14561CE78482E00D187
:100A50000561521C082AE5D34460F0BDF0B5144C82
:100A6000002801DAE36900E06368450D2E0185B2D4
:100A7000C0F30157B540C0F30342032F05D0C602AF
:100A80000AD503269640B34307E023F070626368FB
:100A900023F07063636002E0AB4343F0706201B126
:100AA0002A43002801DAE261F0BD6260F0BD000077
:100AB000000001400246002092680A4200D0012056
:100AC000704701617047FEE738B50121142004F03A
:100AD00097FB01211148FFF7C1FF4FF40040ADF82B
:100AE00000000F4D48248DF8034069462846FFF763
:100AF00067FF2021ADF800108DF8034069460948D2
:100B0000FFF75EFF0120ADF8000028208DF80300FC
:100B100069462846FFF754FF38BD00000002300048
:100B200000080140001001402DE9F0431C4F06462B
:100B3000002438887D884543B888A0F5D041043921
:100B400002D1B87901280CD00021084604F076F8CB
:100B500004F0D2FA13494FF480774B15124A8020E3
:100B60001AE00020B8714FF02A08A7F80A804FF069
:100B70002B09A7F80C90014604F060F80120B87129
:100B8000A7F80A90A7F80C80E2E70F614B611660A6
:100B9000486108610B61641CAC42F6D3BDE8F08388
:100BA000B4000020001001400C0C01402DE9F04F72
:100BB0004A492A232B24898845F2105A4FF4305B86
:100BC0004FF4285E4FF448754FF0F00C49F241396C
:100BD0004FF4A07745F210364FF4F07280B13F48E1
:100BE0004FF00108494580F806800780A0F802C050
:100BF00001D0B1423ED12C2505814381848157E04B
:100C000036484FF00008494580F80680A0F800C03B
:100C1000478006D0A1F5D04CBCF1040C01D0B14204
:100C20000CD12C2505814381A1F5D0438481043B5F
:100C300001D0B14244D10780428041E0514507D103
:100C4000A0F808B0A0F80AE04FF42C5181810EE022
:100C5000A1F5C856633E06D02221018120214181A1
:100C6000212181812CE02C2101814481838102801A
:100C7000458025E0A1F5D04CBCF1040C09D05145CC
:100C80000BD1A0F808B0A0F80AE04FF42C538381F0
:100C900021E02C250581448109E0A1F5C85CBCF167
:100CA000630C12D0222303812123438120238381DB
:100CB000A1F5D043043B01D0B14201D1028047806D
:100CC000BDE8F04F002003F03FBE4FF02C0CA0F821
:100CD00008C04381848105804280E9E7B400002098
:100CE0002DE9FE4F0026A2EB000882465F1A701E17
:100CF00035468946B8F1000F02DD4FF0010102E0F0
:100D000003D14FF00001019102E0C8F10008019009
:100D1000002F02DD4FF0010002E003D14FF0000090
:100D2000009002E0C7F1000700904046B84501DDA1
:100D3000044600E03C46601C4FF0000B029015E0BA
:100D40001FFA89F11FFA8AF000F016F846443D4474
:100D5000A64202DD0199361B8A44A54202DD0099B4
:100D60002D1B89440BF101001FFA80FB02998B4572
:100D7000E6DDBDE8FE8F000000B503F05FFF04F084
:100D8000BBF907484FF48071016141154161054A83
:100D9000054B12881A60802242610261016100BD28
:100DA000001001401C0000200C0C0140F0B51C4656
:100DB00015460E4607460B46FFF792FF3A46234676
:100DC00031461046FFF78CFF23462A46194638461F
:100DD000FFF786FF2A4623463146BDE8F04010461D
:100DE000FFF77EBF2DE9F74F0546904881B0DFF849
:100DF00040A2818802982F0A00F0FF094FEA1028CC
:100E0000E8B200908948A1F513424FF4807B4089F5
:100E10004FF40076413A18D0844CA1F5A642103A1E
:100E200013D0A1F5AA42103A36D02246A1F5C857F0
:100E300093791288521B521E633F63D0A1F5D047AD
:100E4000043F7DD0012B7CD0D1E004F043F9794CF4
:100E5000C4F810B06661CAF800708025656125612C
:100E60002661C4F810B066610098CAF80000656198
:100E7000256126616D48808904F02CF9C4F810B012
:100E800066615146CAF80080656125612661C4F833
:100E900010B06661484631E004F01CF9654CC4F8B6
:100EA00010B06661CAF80070802565612561266111
:100EB0005E484089401C80B204F00CF9C4F810B0C0
:100EC00066610098CAF8000065612561266157488F
:100ED000808904F0FFF8C4F810B06661CAF8008099
:100EE00065612561266151488089401C80B204F00B
:100EF000F1F8C4F810B06661484651460860656173
:100F0000256171E003B995B204F0E4F8494CC4F8E6
:100F100010B06661280ACAF800008027676127615F
:100F20002661C4F810B06661E9B2CAF800106761C2
:100F300027612661C4F810B06661CAF8000001E0BC
:100F400025E053E0676127612661C4F810B066614F
:100F5000CAF800106761276126613448808904F06F
:100F6000B9F8C4F810B066615146CAF800806761EC
:100F700027612661C4F810B06661CAF80090676105
:100F800027612661C4F810B06661404621E0012B5C
:100F900000D195B204F09EF8264CC4F810B06661FA
:100FA000290ACAF800108027676127612661C4F802
:100FB00010B06661E9B2CAF8001067612761266166
:100FC0001A48808904F086F8C4F810B0666140467B
:100FD00051460860676127612661C4F810B06661F8
:100FE000C1F8009067612761266107E095B2294644
:100FF00004F088F8A089029904F084F80D48C0F83C
:1010000014B0466109490989CAF80010802141617C
:1010100001610661C0F810B04661039BCAF8003058
:10102000416101610661BDE8FF8F0000B40000204E
:101030000C0C0140001001402DE9F84F012119204E
:1010400004F0DEF80121FE48FFF708FD4FF4F864D4
:10105000ADF8004010208DF80300DFF8E88303208E
:101060008DF80200694645464046FFF7A9FC214637
:101070002846FFF726FDF44D4FF6FF74ADF800400B
:1010800069462846FFF79CFC21462846FFF719FDD4
:10109000322004F0DDFA0121002004F033F8322080
:1010A00004F0D6FA002003F0F9FBE84C49F241378E
:1010B00046F60409A08045F2103A45F21055FF2883
:1010C00006D3A0F57F41FF3902D0B0F5134F70D1A0
:1010D000D32003F0FFFF03F0A9FB03F0A7FB03F00D
:1010E000A5FB4FF6FF7606EA0020A08003F09EFBEA
:1010F000A1880843A080B8425BD0BF2003F0EAFF7C
:1011000003F094FB03F092FB03F090FB03F08EFBE3
:1011100006EA0020A08003F089FBA1880843A08094
:10112000484546D0D42003F0D5FF03F07FFB03F001
:101130007DFB03F07BFB06EA0020A08003F076FB3A
:10114000A1880843A080504533D04FF45A4003F0A3
:10115000C1FF03F06BFB4FF45B4003F0BBFF03F0F8
:1011600065FB06EA0020A0804FF45C4003F0B2FF6C
:1011700003F05CFBA1880843A080B0F5004F7DD050
:10118000A84216D0A12003F0A5FF03F04FFBA080DA
:1011900003F04CFB06EA0020A08003F047FBA18887
:1011A0000843A0F5AE41A080613902D141F6631039
:1011B000A080A188A6A0FFF781F8A088B8427DD1C1
:1011C000CF2003F087FF002003F072FFC12003F05F
:1011D0006FFF302003F06CFFED2003F07BFF6420F5
:1011E00003F066FF032003F063FF122003F060FFAB
:1011F000812003F05DFFE82003F06CFF852003F001
:1012000057FF102003F054FF7A2003F051FFCB204A
:1012100003F060FF392003F04BFF2C2003F048FF60
:10122000002003F045FF342003F042FF022003F0CA
:101230003FFFF72003F04EFF202003F039FFEA20A4
:1012400003F048FF002003F033FF002003F030FFDD
:10125000C02003F03FFF1B2003F02AFFC12003F052
:1012600039FF012003F024FFC52003F033FF3020B5
:1012700003F01EFF302003F01BFF00E0B3E0C720A7
:1012800003F028FFB72003F013FF362003F022FFFE
:10129000482003F00DFF3A2003F01CFF552003F017
:1012A00007FFB12003F016FF002003F001FF1A2012
:1012B00003F0FEFEB62003F00DFF00E095E00A20EB
:1012C00003F0F6FEA22003F0F3FEF22003F002FF8B
:1012D000002003F0EDFE262003F0FCFE012003F0C9
:1012E000E7FEE02003F0F6FE0F2003F0E1FE2A20E7
:1012F00003F0DEFE282003F0DBFE082003F0D8FE1A
:101300000E2003F0D5FE082003F0D2FE542003F097
:10131000CFFEA92003F0CCFE432003F0C9FE0A2033
:1013200003F0C6FE0F2003F0C3FE002003F0C0FE52
:10133000002003F0BDFE002003F0BAFE002003F001
:10134000B7FEE12003F0C6FE002003F0B1FE152039
:1013500003F0AEFE172003F0ABFE072003F0A8FE5B
:10136000112003F0A5FE062003F0A2FE2B2003F0BF
:101370009FFE562003F09CFE3C2003F099FE0520C2
:1013800003F096FE102003F093FE0F2003F090FE72
:101390003F2003F08DFE3F2003F08AFE0F2003F074
:1013A00087FE2B2003F096FE002003F081FE002034
:1013B00003F07EFE012003F07BFE3F2003F078FE69
:1013C0002A2003F087FE002003F072FE002003F0C5
:1013D0006FFE002003F06CFEEF2003F069FE112089
:1013E00003F078FEB8E0A580E3E648457ED1112001
:1013F00003F070FE142004F02BF9D02003F06AFEF5
:10140000072003F055FE422003F052FE1D2003F09A
:101410004FFED12003F05EFE002003F049FE1A20AB
:1014200003F046FE092003F043FED22003F052FEF3
:10143000012003F03DFE222003F03AFEC0200FE021
:101440000002300000100140000C0140B4000020F8
:10145000204C43442049443A25780D0A00000000FE
:1014600003F038FE102003F023FE3B2003F020FEA3
:10147000002003F01DFE022003F01AFE112003F0ED
:1014800017FEC52003F026FE032003F011FEC8203E
:1014900003F020FE002003F00BFE252003F008FEE1
:1014A000212003F005FE052003F002FE002003F0DA
:1014B000FFFD0A2003F0FCFD652003F0F9FD252067
:1014C00003F0F6FD772003F0F3FD502003F0F0FD6C
:1014D0000F2003F0EDFD002003F0EAFDF82003F0FB
:1014E000F9FD012003F0E4FDFE2000E03AE003F006
:1014F000F1FD002003F0DCFD022003F0D9FD2020E7
:1015000003F0E8FD362003F0E5FD082003F0D0FDF0
:101510003A2003F0DFFD552003F0CAFD2B2003F035
:10152000D9FD002003F0C4FD002003F0C1FD01201F
:1015300003F0BEFD3F2003F0BBFD2A2003F0CAFDEF
:10154000002003F0B5FD002003F0B2FD012003F000
:10155000AFFDDF2003F0ACFD782004F079F82920FE
:1015600001F0FBBE50457CD1ED2003F0B3FD01201E
:1015700003F09EFDFE2003F09BFDEE2003F0AAFD8C
:10158000DE2003F095FD212003F092FDF12003F011
:10159000A1FD012003F08CFDDF2003F09BFD102056
:1015A00003F086FDC42003F095FD8F2003F080FD3D
:1015B000C62003F08FFD002003F07AFDE22003F047
:1015C00077FDE22003F074FDE22003F071FDBF20FF
:1015D00003F080FDAA2003F06BFDB02003F07AFD3C
:1015E0000D2003F065FD002003F062FD0D2003F0E7
:1015F0005FFD002003F05CFD112003F059FD002089
:1016000003F056FD192003F053FD002003F050FDB8
:10161000212003F04DFD002003F04AFD2D2003F0B2
:1016200047FD002003F044FD3D2003F041FD002074
:1016300003F03EFD5D2003F03BFD002003F038FD8C
:101640005D2003F035FD002003F032FDB12003F0F2
:1016500041FD802003F02CFD002003F029FD8B20AC
:1016600000E0FCE303F024FD002003F021FD9620C0
:1016700003F01EFD002003F01BFDB22003F02AFD45
:10168000002003F015FD002003F012FD022003F0FE
:101690000FFD002003F00CFD032003F009FD0020E6
:1016A00003F006FDB32003F015FD002003F000FD5C
:1016B000002003F0FDFC002003F0FAFC002003F002
:1016C000F7FC002003F0F4FC002003F0F1FC002004
:1016D00003F0EEFC002003F0EBFC002003F0E8FC3C
:1016E000002003F0E5FC002003F0E2FC002003F002
:1016F000DFFC002003F0DCFC002003F0D9FC00201C
:1017000003F0D6FC002003F0D3FC002003F0D0FC53
:10171000002003F0CDFC002003F0CAFC002003F001
:10172000C7FC002003F0C4FC002003F0C1FC002033
:1017300003F0BEFC002003F0BBFCB42003F0CAFCA5
:101740008B2003F0B5FC002003F0B2FC962003F0E0
:10175000AFFC002003F0ACFCA12003F0A9FC0020AA
:1017600003F0A6FCB52003F0B5FC022003F0A0FCBA
:10177000002003F09DFC032003F09AFC002003F0FE
:1017800097FC042003F094FC002003F091FCB620A9
:1017900003F0A0FC002003F08BFC002003F088FC89
:1017A000B72003F097FC002003F082FC002003F038
:1017B0007FFC3F2003F07CFC002003F079FC5E20DE
:1017C00003F076FC002003F073FC642003F070FC4F
:1017D000002003F06DFC8C2003F06AFC002003F075
:1017E00067FCAC2003F064FC002003F061FCDC200B
:1017F00003F05EFC002003F05BFC702003F058FC5B
:10180000002003F055FC902003F052FC002003F070
:101810004FFCEB2003F04CFC002003F049FCDC20E3
:1018200003F046FC002003F043FCB82003F052FC18
:10183000002003F03DFC002003F03AFC002003F000
:1018400037FC002003F034FC002003F031FC0020C2
:1018500003F02EFC002003F02BFC002003F028FCFA
:10186000BA2003F037FC242003F022FC002003F010
:101870001FFC002003F01CFC002003F019FCC12019
:1018800003F028FC202003F013FC002003F010FCE0
:10189000542003F00DFC002003F00AFCFF2003F0AD
:1018A00007FC002003F004FCC22003F013FC0A2014
:1018B00003F0FEFB002003F0FBFB042003F0F8FB29
:1018C000002003F0F5FBC32003F004FC3C2003F0F0
:1018D000EFFB002003F0ECFB3A2003F0E9FB0020D3
:1018E00003F0E6FB392003F0E3FB002003F0E0FB0C
:1018F000372003F0DDFB002003F0DAFB3C2003F08F
:10190000D7FB002003F0D4FB362003F0D1FB0020EE
:1019100003F0CEFB322003F0CBFB002003F0C8FB2A
:101920002F2003F0C5FB002003F0C2FB2C2003F0A6
:10193000BFFB002003F0BCFB292003F0B9FB002013
:1019400003F0B6FB262003F0B3FB002003F0B0FB4E
:10195000242003F0ADFB002003F0AAFB242003F0B9
:10196000A7FB002003F0A4FB232003F0A1FB002031
:1019700003F09EFB3C2003F09BFB002003F098FB50
:10198000362003F095FB002003F092FB322003F099
:101990008FFB002003F08CFB2F2003F089FB00203D
:1019A00003F086FB2C2003F083FB002003F080FB78
:1019B000292003F07DFB002003F07AFB262003F0B2
:1019C00077FB002003F074FB242003F071FB002060
:1019D00003F06EFB242003F06BFB002003F068FB98
:1019E000232003F065FB002003F062FBC42003F01A
:1019F00071FB622003F05CFB002003F059FB052023
:101A000003F056FB002003F053FB842003F050FB4F
:101A1000002003F04DFBF02003F04AFB002003F010
:101A200047FB182003F044FB002003F041FBA420F7
:101A300003F03EFB002003F03BFB182003F038FBD3
:101A4000002003F035FB502003F032FB002003F0B0
:101A50002FFB0C2003F02CFB002003F029FB1720A8
:101A600003F026FB002003F023FB952003F020FB6E
:101A7000002003F01DFBF32003F01AFB002003F00D
:101A800017FBE62003F014FB002003F011FBC52038
:101A900003F020FB322003F00BFB002003F008FBD7
:101AA000442003F005FB002003F002FB652003F057
:101AB000FFFA002003F0FCFA762003F0F9FA002088
:101AC00003F0F6FA882003F0F3FA002003F0F0FAAE
:101AD000C62003F0FFFA202003F0EAFA002003F00A
:101AE000E7FA172003F0E4FA002003F0E1FA0120FE
:101AF00003F0DEFA002003F0DBFAC72003F0EAFA75
:101B0000002003F0D5FA002003F0D2FA002003F001
:101B1000CFFA002003F0CCFAC82003F0DBFA002053
:101B200003F0C6FA002003F0C3FA002003F0C0FA65
:101B3000002003F0BDFAC92003F0CCFA002003F026
:101B4000B7FA002003F0B4FA002003F0B1FA002045
:101B500003F0AEFA002003F0ABFA002003F0A8FA7D
:101B6000002003F0A5FA002003F0A2FA002003F001
:101B70009FFA002003F09CFA002003F099FA00205D
:101B800003F096FA002003F093FA002003F090FA95
:101B9000002003F08DFA002003F08AFAE02003F021
:101BA00099FA162003F084FA002003F081FA1C2031
:101BB00003F07EFA002003F07BFA212003F078FA8C
:101BC000002003F075FA362003F072FA002003F0CB
:101BD0006FFA462003F06CFA002003F069FA5220F5
:101BE00003F066FA002003F063FA642003F060FA61
:101BF000002003F05DFA7A2003F05AFA002003F087
:101C000057FA8B2003F054FA002003F051FA992080
:101C100003F04EFA002003F04BFAA82003F048FA34
:101C2000002003F045FAB92003F042FA002003F047
:101C30003FFAC42003F03CFA002003F039FACA202E
:101C400003F036FA002003F033FAD22003F030FA22
:101C5000002003F02DFAD92003F02AFA002003F027
:101C600027FAE02003F024FA002003F021FAF32001
:101C700003F01EFA002003F01BFAE12003F02AFA19
:101C8000162003F015FA002003F012FA1C2003F0CE
:101C90000FFA002003F00CFA222003F009FA0020CA
:101CA00003F006FA362003F003FA002003F000FAEE
:101CB000452003F0FDF9002003F0FAF9522003F06B
:101CC000F7F9002003F0F4F9642003F0F1F90020A3
:101CD00003F0EEF97A2003F0EBF9002003F0E8F9C5
:101CE0008B2003F0E5F9002003F0E2F9992003F0DE
:101CF000DFF9002003F0DCF9A82003F0D9F9002077
:101D000003F0D6F9B92003F0D3F9002003F0D0F99D
:101D1000C42003F0CDF9002003F0CAF9CA2003F073
:101D2000C7F9002003F0C4F9D22003F0C1F9002064
:101D300003F0BEF9D82003F0BBF9002003F0B8F996
:101D4000E02003F0B5F9002003F0B2F9F32003F02E
:101D5000AFF9002003F0ACF9E22003F0BBF9052055
:101D600003F0A6F9002003F0A3F90B2003F0A0F97B
:101D7000002003F09DF91B2003F09AF9002003F0E6
:101D800097F9342003F094F9002003F091F94420EE
:101D900003F08EF9002003F08BF94F2003F088F94F
:101DA000002003F085F9612003F082F9002003F0A0
:101DB0007FF9792003F07CF9002003F079F988207D
:101DC00003F076F9002003F073F9972003F070F91F
:101DD000002003F06DF9A62003F06AF9002003F05B
:101DE00067F9B72003F064F9002003F061F9C2201D
:101DF00003F05EF9002003F05BF9C72003F058F907
:101E0000002003F055F9D12003F052F9002003F02F
:101E10004FF9D62003F04CF9002003F049F9DD20FA
:101E200003F046F9002003F043F9F32003F040F9F2
:101E3000002003F03DF9E32003F04CF9052003F006
:101E400037F9002003F034F90A2003F031F90020BB
:101E500003F02EF91C2003F02BF9002000E0FDE236
:101E600003F026F9332003F023F9002003F020F9D2
:101E7000442003F01DF9002003F01AF9502003F06C
:101E800017F9002003F014F9622003F011F9002083
:101E900003F00EF9782003F00BF9002003F008F9A5
:101EA000882003F005F9002003F002F9972003F0E1
:101EB000FFF8002003F0FCF8A62003F0F9F800205A
:101EC00003F0F6F8B72003F0F3F8002003F0F0F881
:101ED000C22003F0EDF8002003F0EAF8C72003F079
:101EE000E7F8002003F0E4F8D12003F0E1F8002047
:101EF00003F0DEF8D52003F0DBF8002003F0D8F87B
:101F0000DD2003F0D5F8002003F0D2F8F32003F031
:101F1000CFF8002003F0CCF8E42003F0DBF8012038
:101F200003F0C6F8002003F0C3F8012003F0C0F866
:101F3000002003F0BDF8022003F0BAF8002003F0FF
:101F4000B7F82A2003F0B4F8002003F0B1F83C20E1
:101F500003F0AEF8002003F0ABF84B2003F0A8F834
:101F6000002003F0A5F85D2003F0A2F8002003F0A4
:101F70009FF8742003F09CF8002003F099F8842067
:101F800003F096F8002003F093F8932003F090F804
:101F9000002003F08DF8A22003F08AF8002003F05F
:101FA00087F8B32003F084F8002003F081F8BE2006
:101FB00003F07EF8002003F07BF8C42003F078F8EB
:101FC000002003F075F8CD2003F072F8002003F034
:101FD0006FF8D32003F06CF8002003F069F8DD20DF
:101FE00003F066F8002003F063F8F32003F060F8D4
:101FF000002003F05DF8E52003F06CF8002003F00A
:1020000057F8002003F054F8002003F051F80020A6
:1020100003F04EF8022003F04BF8002003F048F8DC
:10202000292003F045F8002003F042F83C2003F09B
:102030003FF8002003F03CF84B2003F039F8002073
:1020400003F036F85D2003F033F8002003F030F899
:10205000742003F02DF8002003F02AF8842003F008
:1020600027F8002003F024F8932003F021F8002043
:1020700003F01EF8A22003F01BF8002003F018F86C
:10208000B32003F015F8002003F012F8BE2003F08F
:102090000FF8002003F00CF8C42003F009F800202A
:1020A00003F006F8CD2003F003F8002003F000F859
:1020B000D32002F0FDFF002002F0FAFFDC2002F046
:1020C000F7FF002002F0F4FFF32002F0F1FF002000
:1020D00002F0EEFFE62002F0FDFF112002F0E8FF23
:1020E000002002F0E5FF342002F0E2FF002002F0C1
:1020F000DFFF562002F0DCFF002002F0D9FF76203F
:1021000002F0D6FF002002F0D3FF772002F0D0FFCC
:10211000002002F0CDFF662002F0CAFF002002F08E
:10212000C7FF882002F0C4FF002002F0C1FF992001
:1021300002F0BEFF002002F0BBFFBB2002F0B8FFA0
:10214000002002F0B5FF992002F0B2FF002002F05B
:10215000AFFF662002F0ACFF002002F0A9FF55207F
:1021600002F0A6FF002002F0A3FF552002F0A0FF1E
:10217000002002F09DFF452002F09AFF002002F0AF
:1021800097FF432002F094FF002002F091FF4420CB
:1021900002F08EFF002002F08BFFE72002F09AFF92
:1021A000322002F085FF002002F082FF552002F06D
:1021B0007FFF002002F07CFF762002F079FF0020F4
:1021C00002F076FF662002F073FF002002F070FF3D
:1021D000672002F06DFF002002F06AFF672002F026
:1021E00067FF002002F064FF872002F061FF0020FB
:1021F00002F05EFF992002F05BFF002002F058FF22
:10220000BB2002F055FF002002F052FF992002F09F
:102210004FFF002002F04CFF772002F049FF002022
:1022200002F046FF442002F043FF002002F040FF8E
:10223000562002F03DFF002002F03AFF232002F07A
:1022400037FF002002F034FF332002F031FF00207E
:1022500002F02EFF452002F02BFF002002F028FFA5
:10226000E82002F037FF002002F022FF002002F0F9
:102270001FFF992002F01CFF002002F019FF8720A9
:1022800002F016FF002002F013FF882002F010FF7A
:10229000002002F00DFF772002F00AFF002002F07C
:1022A00007FF662002F004FF002002F001FF8820F3
:1022B00002F0FEFE002002F0FBFEAA2002F0F8FE73
:1022C000002002F0F5FEBB2002F0F2FE002002F03A
:1022D000EFFE992002F0ECFE002002F0E9FE6620FD
:1022E00002F0E6FE002002F0E3FE552002F0E0FEE0
:1022F000002002F0DDFE552002F0DAFE002002F0A0
:10230000D7FE442002F0D4FE002002F0D1FE44208B
:1023100002F0CEFE002002F0CBFE552002F0C8FEF7
:10232000002002F0C5FEE92002F0D4FEAA2002F04F
:10233000BFFE002002F0BCFE002002F0B9FE00202B
:1023400002F0B6FE002002F0C5FEAA2002F0B0FEA8
:10235000CF2002F0BFFE002002F0AAFE002002F013
:10236000A7FE002002F0A4FE002002F0A1FE002043
:1023700002F09EFE002002F09BFE002002F098FE7C
:10238000002002F095FE002002F092FE002002F0F4
:102390008FFE002002F08CFE002002F089FE00205B
:1023A00002F086FE002002F083FE002002F080FE94
:1023B000002002F07DFE002002F07AFEF02002F004
:1023C00089FE002002F074FE502002F071FE002011
:1023D00002F06EFE002002F06BFE002002F068FEAC
:1023E000F32002F077FE002002F062FEF92002F0F6
:1023F00071FE062002F05CFE102002F059FE29203A
:1024000002F056FE002002F053FE3A2002F062FE77
:10241000552002F04DFE112002F05CFE642003F016
:1024200017F9292002F056FE352002F053FE002055
:1024300002F03EFE512002F04DFEFF2002F038FE79
:10244000532002F047FE2C2002F032FE552002F00D
:1024500041FE822002F02CFE2C20FCE3A8427DD11C
:102460004FF470445521204602F04CFE651CAA2111
:10247000284602F047FEA61C5221304602F042FEDA
:10248000E71C0821384602F03DFE4FF20408012106
:10249000404602F037FE0D214FF4304002F032FE8C
:1024A0000D214BF2010002F02DFE0D214BF2020036
:1024B00002F028FE4FF436493421484602F022FE4D
:1024C00034214BF2016002F01DFE34214BF2026018
:1024D00002F018FE4FF4314A0D21504602F012FE70
:1024E0004BF2011B0D21584602F00CFE0D214BF260
:1024F000021002F007FE34214FF4374002F002FED2
:1025000034214BF2017002F0FDFD34214BF20270D8
:1025100002F0F8FD00214FF4324002F0F3FD0021FB
:102520004BF2012002F0EEFD00214BF2022002F0FE
:10253000E9FD24214FF4384002F0E4FD24214BF65C
:10254000010002F0DFFD24214BF6020002F0DAFD6B
:1025500001214FF43F4002F0D5FD00E0FEE30F21E2
:102560004FF4334002F0CEFD0F214BF2013002F068
:10257000C9FD0F214BF2023002F0C4FD34214FF4AB
:10258000394002F0BFFD34214BF6011002F0BAFDD4
:1025900034214BF6021002F0B5FD08214FF435400E
:1025A00002F0B0FD08214BF2015002F0ABFD082112
:1025B0004BF2025002F0A6FD03214FF4424002F01C
:1025C000A1FD24214FF43A4002F09CFD24214BF65A
:1025D000012002F097FD24214BF6022002F092FD2B
:1025E00000214FF43C4002F08DFD78214BF6014074
:1025F00002F088FD00214BF6024002F083FD00212D
:102600004FF43D4002F07EFD78214BF6015002F080
:1026100079FD00214BF6025002F074FD00214FF4C9
:102620003E4002F06FFD64214BF6016002F06AFD4E
:1026300000214FF4514002F065FD33214DF20110AD
:1026400002F060FD00214DF2021002F05BFD34212A
:102650004DF2031002F056FD00214DF2041002F07D
:1026600051FD3A214DF2051002F04CFD00214DF2D2
:10267000061002F047FD4A214DF2071002F042FD1C
:1026800000214DF2081002F03DFD5C214DF20910D1
:1026900002F038FD00214DF20A1002F033FD8121D5
:1026A0004DF20B1002F02EFD00214DF20C1002F045
:1026B00029FDA6214DF20D1002F024FD00214DF25E
:1026C0000E1002F01FFDE5214DF20F1002F01AFD71
:1026D00001214DF2101002F015FD13214DF21110E1
:1026E00002F010FD01214DF2121002F00BFD5421F9
:1026F0004DF2131002F006FD01214DF2141002F00C
:1027000001FD82214DF2151002F0FCFC01214DF279
:10271000161002F0F7FCCA214DF2171002F0F2FC7D
:1027200002214DF2181002F0EDFC00214DF21910BB
:1027300002F0E8FC02214DF21A1002F0E3FC012144
:102740004DF21B1002F0DEFC02214DF21C1002F0D3
:10275000D9FC34214DF21D1002F0D4FC02214DF2BF
:102760001E1002F0CFFC67214DF21F1002F0CAFCD0
:1027700002214DF2201002F0C5FC84214DF22110FF
:1027800002F0C0FC02214DF2221002F0BBFCA42199
:102790004DF2231002F0B6FC02214DF2241002F09B
:1027A000B1FCB7214DF2251002F0ACFC02214DF234
:1027B000261002F0A7FCCF214DF2271002F0A2FC58
:1027C00002214DF2281002F09DFCDE214DF229106D
:1027D00002F098FC02214DF22A1002F093FCF22143
:1027E0004DF22B1002F08EFC02214DF22C1002F063
:1027F00089FCFE214DF22D1002F084FC03214DF2E4
:102800002E1002F07FFC10214DF22F1002F07AFC06
:1028100003214DF2301002F075FC33214DF23110DE
:1028200002F070FC03214DF2321002F06BFC6D21BE
:102830004DF2331002F066FC00214FF4524002F0DA
:1028400061FC33214DF2012002F05CFC00214DF2CD
:10285000022002F057FC34214DF2032002F052FC1A
:1028600000214DF2042002F04DFC3A214DF20520EA
:1028700002F048FC00214DF2062002F043FC4A2100
:102880004DF2072002F03EFC00214DF2082002F03C
:1028900039FC5C214DF2092002F034FC00214DF29C
:1028A0000A2002F02FFC81214DF20B2002F02AFCBD
:1028B00000214DF20C2002F025FCA6214DF20D2046
:1028C00002F020FC00214DF20E2002F01BFCE5215D
:1028D0004DF20F2002F016FC01214DF2102002F003
:1028E00011FC13214DF2112002F00CFC01214DF2DC
:1028F000122002F007FC54214DF2132002F002FCDA
:1029000001214DF2142002F0FDFB82214DF2152031
:1029100002F0F8FB01214DF2162002F0F3FBCA2170
:102920004DF2172002F0EEFB02214DF2182002F0CA
:10293000E9FB00214DF2192002F0E4FB02214DF2E7
:102940001A2002F0DFFB01214DF21B2002F0DAFB1E
:1029500002214DF21C2002F0D5FB34214DF21D2046
:1029600002F0D0FB02214DF21E2002F0CBFB6721CA
:102970004DF21F2002F0C6FB02214DF2202002F092
:10298000C1FB84214DF2212002F0BCFB02214DF25B
:10299000222002F0B7FBA4214DF2232002F0B2FB6B
:1029A00002214DF2242002F0ADFBB7214DF225208B
:1029B00002F0A8FB02214DF2262002F0A3FBCF215A
:1029C0004DF2272002F09EFB02214DF2282002F05A
:1029D00099FBDE214DF2292002F094FB02214DF2F9
:1029E0002A2002F08FFBF2214DF22B2002F08AFB0D
:1029F00002214DF22C2002F085FBFE214DF22D200C
:102A000002F080FB03214DF22E2002F07BFB10210F
:102A10004DF22F2002F076FB03214DF2302002F020
:102A200071FB33214DF2312002F06CFB03214DF29A
:102A3000322002F067FB6D214DF2332002F062FB81
:102A400000214FF4534002F05DFB33214DF2013081
:102A500002F058FB00214DF2023002F053FB34210A
:102A60004DF2033002F04EFB00214DF2043002F033
:102A700049FB3A214DF2053002F044FB00214DF2B2
:102A8000063002F03FFB4A214DF2073002F03AFBDC
:102A900000214DF2083002F035FB5C214DF2093087
:102AA00002F030FB00214DF20A3002F02BFB8121B5
:102AB0004DF20B3002F026FB00214DF20C3002F0FB
:102AC00021FBA6214DF20D3002F01CFB00214DF23E
:102AD0000E3002F017FBE5214DF20F3002F012FB31
:102AE00001214DF2103002F00DFB13214DF2113097
:102AF00002F008FB01214DF2123002F003FB5421D9
:102B00004DF2133002F0FEFA01214DF2143002F0C2
:102B1000F9FA82214DF2153002F0F4FA01214DF25A
:102B2000163002F0EFFACA214DF2173002F0EAFA3D
:102B300002214DF2183002F0E5FA00214DF2193071
:102B400002F0E0FA02214DF21A3002F0DBFA012124
:102B50004DF21B3002F0D6FA02214DF21C3002F089
:102B6000D1FA34214DF21D3002F0CCFA02214DF29F
:102B70001E3002F0C7FA67214DF21F3002F0C2FA90
:102B800002214DF2203002F0BDFA84214DF22130B5
:102B900002F0B8FA02214DF2223002F0B3FAA42179
:102BA0004DF2233002F0AEFA02214DF2243002F051
:102BB000A9FAB7214DF2253002F0A4FA02214DF214
:102BC000263002F09FFACF214DF2273002F09AFA18
:102BD00002214DF2283002F095FADE214DF2293023
:102BE00002F090FA02214DF22A3002F08BFAF22123
:102BF0004DF22B3002F086FA02214DF22C3002F019
:102C000081FAFE214DF22D3002F07CFA03214DF2C3
:102C10002E3002F077FA10214DF22F3002F072FAC6
:102C200003214DF2303002F06DFA33214DF2313094
:102C300002F068FA03214DF2323002F063FA6D219E
:102C40004DF2333002F05EFA00214FF4544002F0AE
:102C500059FA332100E080E34DF2014002F052FACC
:102C600000214DF2024002F04DFA34214DF20340B2
:102C700002F048FA00214DF2044002F043FA3A21F2
:102C80004DF2054002F03EFA00214DF2064002F0FE
:102C900039FA4A214DF2074002F034FA00214DF290
:102CA000084002F02FFA5C214DF2094002F02AFAA6
:102CB00000214DF20A4002F025FA81214DF20B402D
:102CC00002F020FA00214DF20C4002F01BFAA6217E
:102CD0004DF20D4002F016FA00214DF20E4002F0C6
:102CE00011FAE5214DF20F4002F00CFA01214DF2EC
:102CF000104002F007FA13214DF2114002F002FADF
:102D000001214DF2124002F0FDF954214DF2134021
:102D100002F0F8F901214DF2144002F0F3F982219A
:102D20004DF2154002F0EEF901214DF2164002F08D
:102D3000E9F9CA214DF2174002F0E4F902214DF2FF
:102D4000184002F0DFF900214DF2194002F0DAF9E3
:102D500002214DF21A4002F0D5F900E001E3012111
:102D60004DF21B4002F0CEF902214DF21C4002F060
:102D7000C9F934214DF21D4002F0C4F902214DF28F
:102D80001E4002F0BFF967214DF21F4002F0BAF970
:102D900002214DF2204002F0B5F984214DF221408C
:102DA00002F0B0F902214DF2224002F0ABF9A42169
:102DB0004DF2234002F0A6F902214DF2244002F028
:102DC000A1F9B7214DF2254002F09CF902214DF204
:102DD000264002F097F9CF214DF2274002F092F9F8
:102DE00002214DF2284002F08DF9DE214DF22940FA
:102DF00002F088F902214DF22A4002F083F9F22113
:102E00004DF22B4002F07EF902214DF22C4002F0EF
:102E100079F9FE214DF22D4002F074F903214DF2B3
:102E20002E4002F06FF910214DF22F4002F06AF9A6
:102E300003214DF2304002F065F933214DF231406B
:102E400002F060F903214DF2324002F05BF96D218E
:102E50004DF2334002F056F900214FF4554002F094
:102E600051F933214DF2015002F04CF900214DF29D
:102E7000025002F047F934214DF2035002F042F9BA
:102E800000214DF2045002F03DF93A214DF2055077
:102E900002F038F900214DF2065002F033F94A21D0
:102EA0004DF2075002F02EF900214DF2085002F0C9
:102EB00029F95C214DF2095002F024F900214DF26C
:102EC0000A5002F01FF981214DF20B5002F01AF95D
:102ED00000214DF20C5002F015F9A6214DF20D50D3
:102EE00002F010F900214DF20E5002F00BF9E5212D
:102EF0004DF20F5002F006F901214DF2105002F090
:102F000001F913214DF2115002F0FCF801214DF2AC
:102F1000125002F0F7F854214DF2135002F0F2F87B
:102F200001214DF2145002F0EDF882214DF21550BE
:102F300002F0E8F801214DF2165002F0E3F8CA2140
:102F40004DF2175002F0DEF802214DF2185002F057
:102F5000D9F800214DF2195002F0D4F802214DF2B7
:102F60001A5002F0CFF801214DF21B5002F0CAF8BE
:102F700002214DF21C5002F0C5F834214DF21D50D3
:102F800002F0C0F802214DF21E5002F0BBF867219A
:102F90004DF21F5002F0B6F802214DF2205002F01F
:102FA000B1F884214DF2215002F0ACF802214DF22B
:102FB000225002F0A7F8A4214DF2235002F0A2F80B
:102FC00002214DF2245002F09DF8B7214DF2255018
:102FD00002F098F802214DF2265002F093F8CF212A
:102FE0004DF2275002F08EF802214DF2285002F0E7
:102FF00089F8DE214DF2295002F084F802214DF2C9
:103000002A5002F07FF8F2214DF22B5002F07AF8AC
:1030100002214DF22C5002F075F8FE214DF22D5098
:1030200002F070F803214DF22E5002F06BF81021DF
:103030004DF22F5002F066F803214DF2305002F0AD
:1030400061F833214DF2315002F05CF803214DF26A
:10305000325002F057F86D214DF2335002F052F821
:1030600000214FF4564002F04DF833214DF201603B
:1030700002F048F800214DF2026002F043F83421DA
:103080004DF2036002F03EF800214DF2046002F0C0
:1030900039F83A214DF2056002F034F800214DF282
:1030A000066002F02FF84A214DF2076002F02AF87C
:1030B00000214DF2086002F025F85C214DF2096014
:1030C00002F020F800214DF20A6002F01BF8812185
:1030D0004DF20B6002F016F800214DF20C6002F088
:1030E00011F8A6214DF20D6002F00CF800214DF20E
:1030F0000E6002F007F8E5214DF20F6002F002F8D1
:1031000001214DF2106001F0FDFF13214DF211601D
:1031100001F0F8FF01214DF2126001F0F3FF54219C
:103120004DF2136001F0EEFF01214DF2146001F049
:10313000E9FF82214DF2156001F0E4FF01214DF21B
:10314000166001F0DFFFCA214DF2176001F0DAFFCF
:1031500002214DF2186001F0D5FF00214DF21960F7
:1031600001F0D0FF02214DF21A6001F0CBFF0121E6
:103170004DF21B6001F0C6FF02214DF21C6001F010
:10318000C1FF34214DF21D6001F0BCFF02214DF260
:103190001E6001F0B7FF67214DF21F6001F0B2FF22
:1031A00002214DF2206001F0ADFF84214DF221603B
:1031B00001F0A8FF02214DF2226001F0A3FFA4213B
:1031C0004DF2236001F09EFF02214DF2246001F0D8
:1031D00099FFB7214DF2256001F094FF02214DF2D5
:1031E000266001F08FFFCF214DF2276001F08AFFAA
:1031F00002214DF2286001F085FFDE214DF22960A9
:1032000001F080FF02214DF22A6001F07BFFF221E4
:103210004DF22B6001F076FF02214DF22C6001F09F
:1032200071FFFE214DF22D6001F06CFF03214DF284
:103230002E6001F067FF10214DF22F6001F062FF58
:1032400003214DF2306001F05DFF33214DF231601A
:1032500001F058FF03214DF2326001F053FF6D2160
:103260004DF2336001F04EFF5521204601F04AFF38
:10327000AA21284601F046FF5221304601F042FFC4
:103280000821384601F03EFF0021404601F03AFF98
:10329000CC21504601F036FF0021584601F032FFA4
:1032A0000521484601F02EFF70214FF4374001F010
:1032B00029FF70214BF2017001F024FF01214FF42E
:1032C000384001F01FFF03214BF6010001F01AFF07
:1032D00003214BF6020001F015FF03214BF603001A
:1032E00001F010FF02214FF43C4001F00BFF0021E0
:1032F0004BF6014001F006FF00214BF6024001F0C1
:1033000001FFD0214FF4494001F0FCFE02214CF6B0
:10331000011001F0F7FE50214CF6021001F0F2FE10
:1033200050214CF6031001F0EDFE50214CF6041034
:1033300001F0E8FE00214FF4545001F0E3FE552166
:103340004FF4685001F0DEFE4FF4885001F0C2FEE9
:10335000782002F099F94FF4245001F0BBFE01F0FF
:1033600053BAA0F513414FF480774FF4E06940F26F
:10337000022A40F23F144FF42746253934D0A0F5F5
:1033800013414FF4017B40F2077528397DD0A0F539
:1033900013414FF48876203978D0A0F513413139A4
:1033A00075D0A0F5A841083972D0A0F5A8514FF406
:1033B000407605396DD0A0F5354105396AD0A0F5C4
:1033C0004541053967D0A0F5094189397DD0A0F57F
:1033D0008A4131397AD0A0F58A41353977D0A0F5C4
:1033E000C851633974D0BAE747F6F001E52001F01F
:1033F00089FE3946012001F085FE4946022001F090
:1034000081FE41F23001032001F07CFE0021042006
:1034100001F078FE5146082001F074FE00210920D9
:1034200001F070FE00210A2001F06CFE00210C204A
:1034300001F068FE00210D2001F064FE00210F2044
:1034400001F060FE0021102001F05CFE0721112038
:1034500001F058FE0021122001F054FE002113203B
:1034600001F050FE0021072001F04CFE41F2906176
:10347000102001F047FE40F22721112001F042FE0A
:103480009D21122001F03EFE06E085E03FE1E2E1F1
:10349000B5E250E3FEE3FEE34FF4C851132001F020
:1034A00031FE2521292001F02DFE0D212B2001F0D8
:1034B00029FE0721302001F025FE40F203313120A2
:1034C00001F020FE0321322003E0E5E3E5E3E5E33C
:1034D000E5E301F017FE40F20621352001F012FE6F
:1034E0000821362001F00EFE40F20641372001F09F
:1034F00009FE4FF44171382001F004FE0721392004
:1035000001F000FE40F202613C2001F0FBFD0821C9
:103510003D2001F0F7FD0021502001F0F3FDEF21E7
:10352000512001F0EFFD0021522001F0EBFD21467A
:10353000532001F0E7FD3146602001F0E3FD012159
:10354000612001F0DFFD00216A2001F0DBFD002198
:10355000802001F0D7FD0021812001F0D3FD002162
:10356000822001F0CFFD0021832001F0CBFD00215E
:10357000842001F0C7FD0021852001F0C3FD10214A
:10358000902001F0BFFD4FF4C061922001F0BAFD20
:1035900040F233110720FDE341F28F01EC2001F0EE
:1035A000B1FD41F23421EF2001F0ACFD394601209C
:1035B00001F0A8FD4946022001F0A4FD41F23001CE
:1035C000032001F09FFD0021042001F09BFD5146E6
:1035D000082001F097FD0021092001F093FD002152
:1035E0000A2001F08FFD01210C2001F08BFD00214C
:1035F0000D2001F087FD00210F2001F083FD002147
:10360000102001F07FFD0721112001F07BFD00213A
:10361000122001F077FD0021132001F073FD01213C
:10362000072001F06FFD322002F012F841F29041C4
:10363000102001F067FD40F22721112001F062FD0A
:10364000322002F005F88A21122001F05BFD3220C1
:1036500001F0FEFF4FF4D051132001F053FD06217D
:10366000292001F04FFD0D212B2001F04BFD3220D0
:1036700001F0EEFF0021202001F044FD0021212077
:1036800001F040FD322001F0E3FF0021302001F085
:1036900039FD40F20461312001F034FD40F2053182
:1036A000322001F02FFD0021352001F02BFD40F6E6
:1036B0000941362001F026FD5946372001F022FD50
:1036C00040F20131382001F01DFD2946392001F07A
:1036D00019FD00213C2001F015FD40F60A213D2096
:1036E00001F010FD322001F0B3FF0021502001F065
:1036F00009FDEF21512001F005FD0021522001F0CC
:1037000001FD2146532001F0FDFC31464CE1002132
:10371000084601F0F7FC3946012001F0F3FC494668
:10372000022001F0EFFC41F23001032001F0EAFC3D
:103730000021042001F0E6FC5146082001F0E2FCE3
:103740000021092001F0DEFC00210A2001F0DAFC52
:1037500001210C2001F0D6FC00210D2001F0D2FC4B
:1037600000210F2001F0CEFC322001F071FF40F269
:103770000111072001F0C6FC322001F069FF4FF46F
:103780008651102001F0BEFC0721112001F0BAFC87
:103790003146122001F0B6FC4FF43061132001F0E5
:1037A000B1FC0021292001F0ADFC44F210012B20D6
:1037B00001F0A8FC0021502001F0A4FCEF215120D1
:1037C00001F0A0FC0021522001F09CFC2146532076
:1037D00001F098FC4FF41C51602001F093FC012192
:1037E000612001F08FFC00216A2001F08BFC002198
:1037F000802001F087FC0021812001F083FC002162
:10380000822001F07FFC0021832001F07BFC00215D
:10381000842001F077FC0021852001F073FC102149
:10382000902001F06FFC0021922001F06BFC01213F
:10383000932001F067FC3146952001F063FC0021E4
:10384000972001F05FFC0021982001F05BFC40F222
:10385000731107207FE341F21401E72001F052FCCD
:103860003946012001F04EFC4FF40071022001F0B6
:1038700049FC41F23801032001F044FC5146082084
:1038800001F040FC0021092001F03CFC00210A204D
:1038900001F038FC00210C2001F034FC00210D2047
:1038A00001F030FC00210F2001F02CFC0021102041
:1038B00001F028FC0721112001F024FC0021122036
:1038C00001F020FC0021132001F01CFCC82001F0B5
:1038D000BFFE41F29061102001F014FC40F227215C
:1038E000112001F00FFC322001F0B2FE0C21122059
:1038F00001F008FC322001F0ABFE4FF40061132010
:1039000001F000FC1121292001F0FCFB0B212B20F0
:1039100001F0F8FB322001F09BFE0021202001F095
:10392000F1FB2146212001F0EDFB0021302001F0C8
:10393000E9FB4FF483763146312001F0E3FB0021AF
:10394000322001F0DFFB5946352001F0DBFB41F26C
:103950000A61362001F0D6FB2946372001F0D2FB60
:103960003146382001F0CEFB2946392001F0CAFB50
:1039700040F202413C2001F0C5FB40F60F413D20E2
:1039800001F0C0FB0021502001F0BCFBEF215120D1
:1039900001F0B8FB0021522001F0B4FB2146532076
:1039A00001F0B0FB4FF41C51602001F0ABFB012192
:1039B000612001F0A7FB00216A2001F0A3FB002198
:1039C000802001F09FFB0021812001F09BFB002162
:1039D000822001F097FB0021832001F093FB00215E
:1039E000842001F08FFB0021852001F08BFB10214A
:1039F000902001F087FB4FF4C0619220FEE339462E
:103A0000012001F07FFB4946022001F07BFB41F2DF
:103A10003001032001F076FB0021042001F072FB4D
:103A200040F20721082001F06DFB0021092001F080
:103A300069FB00210A2001F065FB00210C2001F048
:103A400061FB00210D2001F05DFB00210F2001F042
:103A500059FB142001F0FCFD41F2B061102001F08F
:103A600051FB0121112001F04DFB0121172001F034
:103A700049FB4FF49C71122001F044FB4FF40061AC
:103A8000132001F03FFB0921292001F03BFB092114
:103A90002A2001F037FB0021A42001F033FB002194
:103AA000502001F02FFBEF21512001F02BFB0021D2
:103AB000522001F027FB2146532001F023FB4FF455
:103AC0001C51602001F01EFB0121612001F01AFB56
:103AD00000216A2001F016FB0021802001F012FB7A
:103AE0000021812001F00EFB0021822001F00AFB61
:103AF0000021832001F006FB0021842001F002FB5D
:103B00000021852001F0FEFA1321902001F0FAFA3D
:103B10000021922001F0F6FA0321932001F0F2FA3D
:103B20003146952001F0EEFA40F27311072001F0C2
:103B3000E9FA32200FE10021072001F0E3FA3220F8
:103B400001F086FD4FF48E71122001F0DBFA0121A5
:103B5000A42001F0D7FA0F21082001F0D3FA0821A0
:103B60000A2001F0CFFA08210D2001F0CBFAA84677
:103B70002946302001F0C6FA0721312001F0C2FAAF
:103B800040F20361322001F0BDFA4D464946332030
:103B900001F0B8FA5146342001F0B4FA0221352080
:103BA00001F0B0FA41F60F71362001F0ABFA414650
:103BB000372001F0A7FA0021382001F0A3FA0021F4
:103BC000392001F09FFA41463A2001F09BFA00218A
:103BD0003B2001F097FA07213C2001F093FA0021E5
:103BE0003D2001F08FFA322001F032FD0121072043
:103BF00001F088FA0121172001F084FA322001F047
:103C000027FD4FF4BD51102001F07CFA40F217213E
:103C1000112001F077FA4FF48F71122001F072FA3F
:103C20004FF47061132001F06DFA00212A2001F099
:103C300069FA0A21292001F065FA4FF49F711220D8
:103C400001F060FA0021502001F05CFAEF215120D0
:103C500001F058FA0021522001F054FA2146532075
:103C600001F050FA4FF41C51602001F04BFA012191
:103C7000612001F047FA00216A2001F043FA002197
:103C8000802001F03FFA0021812001F03BFA002161
:103C9000822005E062E05FE126E2D9E28DE3FDE308
:103CA00001F030FA0021832001F02CFA0021842059
:103CB00001F028FA0021852001F024FA1321902038
:103CC00001F020FA3146922001F01CFA05219320E0
:103CD00001F018FA0021952001F014FA0021972034
:103CE00001F010FA0021982001F00CFA3946012069
:103CF00001F008FA2946022001F004FA41F23801E5
:103D0000032001F0FFF90021042001F0FBF900215C
:103D10000C2001F0F7F900210F2001F0F3F9002148
:103D2000202001F0EFF90021212001F0EBF9212101
:103D3000072001F0E7F9142001F08AFC6121072037
:103D400001F0E0F9142001F083FC40F27311072028
:103D500001F0D8F9142001F07BFC2DE30021084686
:103D600001F0D0F90021084601F0CCF90021084605
:103D700001F0C8F90021084601F0C4F90121A4208E
:103D800001F0C0F9142001F063FC4FF41C552946E2
:103D9000602000E0DBE001F0B5F95646514608200E
:103DA00001F0B0F94FF40571302001F0ABF943F2A6
:103DB0001571312001F0A6F940F20461322001F0C2
:103DC000A1F940F61661332001F09CF942F211216D
:103DD000342001F097F94FF4A851352001F092F901
:103DE00048F20751362001F08DF941F207413720A2
:103DF00001F088F941F20341382001F083F92021D4
:103E0000392001F07FF91A21902001F07BF900217F
:103E1000102001F077F90721112001F073F900213A
:103E2000122001F06FF90021132001F06BF914202A
:103E300001F00EFC4FF4E661102001F063F940F24E
:103E40003711112001F05EF9142001F001FC4FF44C
:103E5000DC71122001F056F9142001F0F9FB4FF447
:103E60007061132001F04EF980212A2001F04AF9F7
:103E70004821292001F046F9142001F0E9FB3946D8
:103E8000012001F03FF94946022001F03BF941F2DF
:103E90003801032001F036F93146082001F032F9EB
:103EA00000210A2001F02EF900210C2001F02AF94E
:103EB00000210D2001F026F930210E2001F022F919
:103EC0000021502001F01EF9EF21512001F01AF9D4
:103ED0000021522001F016F92146532001F012F979
:103EE0002946602001F00EF90121612001F00AF954
:103EF00000216A2001F006F91121902001F002F959
:103F00004FF4C061922001F0FDF840F2024193208D
:103F100001F0F8F80221942001F0F4F8142001F0E7
:103F200097FB0121072001F0EDF8142001F090FB30
:103F30006121072001F0E6F840F27311072001F03B
:103F4000E1F80021202001F0DDF80021212001F01E
:103F5000D9F8222100202DE20021084601F0D2F8F4
:103F60000021084601F0CEF8142001F071FB002179
:103F7000084601F0C7F80021084601F0C3F8002107
:103F8000084601F0BFF80021084601F0BBF8012106
:103F9000A42001F0B7F8142001F05AFB4FF41C5193
:103FA000602001F0AFF840F60601082001F0AAF801
:103FB00040F203752946302001F0A4F80121312098
:103FC00001F0A0F80421322001F09CF84FF4817137
:103FD000332001F097F83146342001F093F840F295
:103FE0000311352001F08EF81F21362001F08AF8E8
:103FF0002946372001F086F80121382001F082F8A7
:104000000421392001F07EF81521902001F07AF882
:104010004FF48261102001F075F840F24721112021
:1040200001F070F84FF4DE71122001F06BF84FF4DC
:104030006061132001F066F8782001F009FB394631
:10404000012001F05FF84FF40071022001F05AF8EE
:1040500041F23001032001F055F808210A2001F057
:1040600051F800210C2001F04DF820210E2001F024
:1040700049F800210F2001F045F80021202001F02F
:1040800041F80021212001F03DF83D212A2001F0D6
:1040900039F8142001F0DCFA2D21292001F032F842
:1040A0000021502001F02EF84DF2EF01512001F0D7
:1040B00029F80021522001F025F82146532001F073
:1040C00021F80021612001F01DF800216A2001F093
:1040D00019F83146922001F015F80521932001F0DE
:1040E00011F83946FFF7B5BB0121002001F00AF8AD
:1040F0004AF6A401032001F005F800210C2001F08C
:1041000001F840F60C010D2000F0FCFF4FF42C519B
:104110000E2000F0F7FFB0211E2000F0F3FF42F662
:104120003F31012000F0EEFF4FF4C061022000F0AB
:10413000E9FF0021102000F0E5FF46F27801112090
:1041400000F0E0FF0021052000F0DCFF0021062048
:1041500000F0D8FF4EF61C71162000F0D3FF0321AB
:10416000172000F0CFFF40F23321072000F0CAFFF4
:1041700000210B2000F0C6FF00210F2000F0C2FF3D
:104180000021412000F0BEFF0021422000F0BAFFD4
:104190000021482000F0B6FF2146492000F0B2FF80
:1041A00000214A2000F0AEFF00214B2000F0AAFFC2
:1041B0004FF46F41442000F0A5FF0021452000F09E
:1041C000A1FF2146462000F09DFF2946302000F047
:1041D00099FF5C465946312000F094FF2146322079
:1041E00000F090FF40F202552946332000F08AFF8C
:1041F000691D342000F086FF214600E082E1352071
:1042000000F080FF2146362000F07CFF2946372051
:1042100000F078FF40F2023421463A2000F072FFAD
:1042200021463B2000F06EFF0021232000F06AFFB2
:104230000021242000F066FF4FF40041252000F00B
:1042400061FF00214F2000F05DFF00214E20B1E012
:104250000121002000F056FF0A2001F0F9F941F297
:104260002861102000F04EFF0E21122000F04AFFBE
:1042700040F63921132000F045FF0A2001F0E8F94B
:104280004021112000F03EFF5021152000F03AFFA0
:104290000A2001F0DDF91E21122000F033FF0A2070
:1042A00001F0D6F94FF4B151102000F02BFF42F687
:1042B0003921132000F026FF0A2001F0C9F9394600
:1042C000012000F01FFF3146022000F01BFF41F2E9
:1042D0003801032000F016FF5146082000F012FFBD
:1042E00008210A2000F00EFF0021302000F00AFF14
:1042F00040F20241312000F005FF4FF4837132207B
:1043000000F000FF40F20351332000F0FBFE4FF4B9
:104310008271342000F0F6FE40F20131352000F0C9
:10432000F1FE2946362000F0EDFE40F2053137203F
:1043300000F0E8FE4FF40271382000F0E3FE40F692
:104340000B71392000F0DEFE0221412000F0DAFE80
:104350004FF41C51602000F0D5FE0121612000F0D7
:10436000D1FE4FF40471902000F0CCFE4FF4857123
:10437000922000F0C7FE0421932000F0C3FE3946CE
:10438000A02000F0BFFE0121072000F0BBFE21218C
:10439000072000F0B7FE2321072000F0B3FE3321F1
:1043A000072000F0AFFE40F23311072000F0AAFE14
:1043B0000021A02000F0A6FE26E23021152000F00A
:1043C000A1FE10219A2000F09DFE2021112000F076
:1043D00099FE43F22841102000F094FE02211220A1
:1043E00000F090FE41F23801132000F08BFE2820EF
:1043F00001F02EF91221084600F084FE282001F079
:1044000027F943F22041102000F07CFE43F23801EE
:10441000132000F077FE462001F01AF90021302029
:1044200000F070FE40F20241312000F06BFE40F2DD
:104430000731322000F066FE4FF44171332000F066
:1044400061FE0421342000F05DFE40F20141352080
:1044500000F058FE2946362000F054FE40F20531A7
:10446000372000F04FFE4FF4C2642146382000F0A0
:1044700049FE2146392000F045FE3946012000F072
:1044800041FE3146022000F03DFE41F230010320A2
:1044900000F038FE40F60801082000E037E000F0A8
:1044A00031FE08210A2000F02DFE4FF41C5160203F
:1044B00000F028FE0121612000F024FE4FF49F71DE
:1044C000902000F01FFE3946922000F01BFE394676
:1044D000932000F017FE4FF44051A02000F012FE90
:1044E0001021A32000F00EFE0121072000F00AFE9B
:1044F0002121072000F006FE2321072000F002FE04
:104500003321072000F0FEFD40F23311EAE5E220FE
:1045100000F0E0FD4446C8F810704FF40075C8F88C
:104520001450DFF800831D21C8F800108026666152
:1045300026612561276165610220C8F80000666177
:1045400026612561276165610421C8F80010666154
:1045500026612561642001F097F8E02000F0BAFDA3
:10456000276165614FF0010AC8F800A06661266105
:1045700025610A2001F06CF8E02000F0ABFD276116
:1045800065614FF0030BC8F800B0666126612561D4
:104590000C2001F05DF8012000F09CFD0A2001F0E4
:1045A00057F8E62000F096FD276165612F21C8F8D5
:1045B000001066612661256127616561FF20C8F8EA
:1045C000000066612661256127616561C8F8000009
:1045D000666126612561B02000F07CFD2761656180
:1045E0002021C8F800106661266125612761656198
:1045F0004FF00009C8F800906661266125612761C7
:104600006561C8F800B06661266125612761656152
:1046100040F21F31C8F800106661266125612761EC
:104620006561C8F800A06661266125612761656142
:1046300040F2DF11C8F8001066612661256127612C
:104640006561C8F80090666126612561B42000F0BC
:1046500041FD276165610420C8F80000666126619C
:1046600025612761656140F21F41C8F8001066614D
:104670002661256127616561C8F800906661266141
:104680002561276165612E21C8F8001066612661E9
:104690002561276165614146C8F800906661266121
:1046A000256127616561C8F8009066612661256112
:1046B00027616561C8F80090666126612561276100
:1046C0006561C1F80090666126612561B62000F041
:1046D00001FD276165610220C8F80000666126615E
:1046E0002561276165614FF40371C8F800106661A8
:1046F0002661256127616561C8F8009066612661C1
:104700002561276165611721C8F80010666126617F
:104710002561276165611521C8F800106661266171
:10472000256127616561C8F8009066612661256191
:1047300027616561C8F80090666126612561F020F7
:1047400000F0C8FC27616561C8F800B066612661A9
:104750002561292000F0BEFCD02000F0BBFC2761C1
:104760006561C8F80090666126612561BE2000F091
:10477000B1FC276165610521C8F8001066612661FA
:10478000256127616561FE21C8F800106661266118
:104790002561276165614146C8F800A06661266110
:1047A000256127616561C8F8009066612661256111
:1047B00027616561C8F800906661266125612761FF
:1047C0006561C1F80090666126612561B82000F03E
:1047D00081FC27616561C8F800B0666126612561CA
:1047E00027616561C8F800A0666126612561BA206D
:1047F00000F070FC27616561C8F800A06661266161
:104800002561642000F052F80020FCF7CFF906493A
:104810000120C1F8A8014FF6FF70FCF785F9BDE84B
:10482000F88F00000C0C0140000022422DE9F047F7
:10483000DFF85C904FF08830C9F8000009F10405FA
:104840002860134E00200C363060124CA8152061F1
:10485000470067614FF04008C4F814800E48808814
:10486000A0F50941893902D1022000F00DFF084866
:1048700008300068C4F8108080B227614FF03331EF
:10488000C9F8001029604FF6FF713160BDE8F0876C
:10489000000C014000100140B400002010B500F0F1
:1048A00019FCBDE81040FFF7C1BF00002DE9F0473B
:1048B0008146BE2000F00EFC204C4FF4807727612B
:1048C00065156561DFF878800521C8F8001080263D
:1048D00066612661256127616561484602F0FDFD3C
:1048E0004FF06632174B02F00BFE02F0C9FDC8F81C
:1048F0000000666126612561276165610121C8F8B4
:10490000001066612661256127616561FF21C8F895
:104910000010666126612561276165610020C8F885
:10492000000066612661256127616561C8F80000A5
:10493000666126612561BDE8F08700000010014036
:104940000C0C0140666604402DE9F04FB84C00267F
:104950002146A279898846F6040341F66317012AA5
:1049600001D02AB11DE099421BD0B94202D118E012
:10497000B94216D1082814D2DFE800F00406080A6C
:104980000C0E101206200CE007200AE0042008E0BC
:10499000052006E0012004E0002002E0032000E002
:1049A0000220A1F5134C45F2103245F21055BCF12E
:1049B000410C07D0994205D0914203D0A94201D0C1
:1049C000B9427DD1082812D2DFE800F011040608B0
:1049D0000A0C0E1080260AE0402608E0C02606E0F9
:1049E000202604E0602602E0A02600E0E026A9429E
:1049F00002D14FF4585000E03620914205D0A94230
:104A000003D0B94201D046F00806994201D146F0E0
:104A10000206314600F076FBA188B9420AD0B00602
:104A20002088628802D5904202D303E0904201D9E7
:104A3000228060807F4EDFF800B24FF0000A4FF412
:104A400080774FF40078A9427BD1608900F042FB67
:104A50003761C6F81480D946CBF800A0802575616F
:104A60003561C6F810806089401C80B200F032FBCE
:104A70003761C6F81480C9F800A075613561C6F8C1
:104A800010806089801C80B200F024FB3761C6F87A
:104A900014802088401E0112C9F80010756135612C
:104AA000C6F810806089C01C80B200F013FB37612B
:104AB000C6F814802078401EC1B2C9F8001000E08A
:104AC00099E075613561C6F81080A08900F002FB9D
:104AD0003761C6F81480C9F800A075613561C6F861
:104AE0001080A089401C80B200F0F4FA3761C6F84B
:104AF0001480C9F800A075613561C6F81080A089DE
:104B0000801C80B200F0E6FA3761C6F81480608835
:104B1000401E0112C9F8001075613561C6F8108099
:104B2000A089C01C80B200F0D5FA3761C6F81480A5
:104B3000A078401EC1B2C9F800107561356156E019
:104B4000FFE7A146608900F0C5FA3761C6F8148016
:104B50005D46CBF800A0802474613461C6F81080F3
:104B60003761C6F81480CBF800A074613461C6F8D0
:104B700010803761C6F81480B9F80000401E011299
:104B8000296074613461C6F810803761C6F81480FA
:104B9000C0B2286074613461C6F81080B9F80C00A6
:104BA00000F098FA3761C6F81480C5F800A0746167
:104BB0003461C6F810803761C6F81480C5F800A0CB
:104BC00074613461C6F810803761C6F81480B9F892
:104BD0000200401E0112296074613461C6F8108021
:104BE0003761C6F81480C0B2286074613461C6F8B9
:104BF0001080BDE8F08F082812D2DFE800F004062C
:104C000008110A0C0E1030260AE0102608E02026B3
:104C100006E0382604E0282602E0182600E00826F0
:104C200046F48051BDE8F04F032000F06BBA00005D
:104C3000B4000020001001400C0C01402DE9F34F9E
:104C400004464FEA102900F0FF0A0198DFF8348388
:104C5000060AC5B2B8F804104046DFF82CB3408904
:104C6000A1F51342413A17D0A1F5A642103A13D04C
:104C70004346A1F5D0479A791B881B1B5B1E043F56
:104C800045D0A1F5C857633F7ED0A1F5AA47103F94
:104C90007BD0012A7AD06AE100F01CFA4FF48070D0
:104CA0005C46CBF810004700CBF814704946DFF89B
:104CB000DC92C9F800104FF08008CBF81480CBF8D4
:104CC0001080CBF81070CBF81000CBF81470C9F836
:104CD00000A0CBF81480C4F810802761A94880890F
:104CE00000F0F8F9781020616761C9F80060C4F835
:104CF0001480C4F81080276120616761C9F80050F2
:104D0000C4F81480C4F810802761BDE8FC8F012A24
:104D100000D19CB200F0DEF94FF480705F46CBF812
:104D200010004FF40078CBF81480DFF860A2210A5D
:104D3000CAF800104FF08009CBF81490CBF810900F
:104D4000CBF81080CBF81000CBF81480E1B2CAF891
:104D50000010CBF81490C7F81090C7F8108089485D
:104D6000808900F0B7F94FF480703861C7F814807B
:104D7000CAF80060C7F81490C7F81090C7F8108000
:104D80003861C7F8148002E00AE0A9E0EEE0CAF852
:104D90000050C7F81490C7F81090C7F81080B4E717
:104DA000002A6BD0DFF8DC8100F094F94FF48074B6
:104DB0005846CBF810406200CBF81420734FC7F868
:104DC00000908021CBF81410CBF81010CBF81020F5
:104DD000CBF81040CBF81420C7F800A0CBF8141083
:104DE000CBF81010CBF8102004614261B8F8003005
:104DF0005B1E4FEA232CC7F800C0416101610261CC
:104E000004614261DBB23B604161016102615D4C62
:104E1000A08900F05FF94FF480775846CBF8107006
:104E20007900CBF81410DFF864C1CCF80060802260
:104E3000CBF81420CBF81020CBF81010CBF8107062
:104E4000CBF81410CCF80050CBF81420CBF810207D
:104E5000CBF81010CBF81070416163885B1E1C12F8
:104E6000CCF8004042610261016107614161DBB23F
:104E7000CCF8003042610261016146E71FFA83F815
:104E800000F028F94FF480735846CBF810305900E1
:104E9000CBF814103D4C002727608022CBF814205B
:104EA000CBF81020CBF81010CBF81030CBF8141042
:104EB0002760CBF81420CBF81020CBF8101003613A
:104EC00041614FEA18272760426102610161036175
:104ED000416108F0FF03236042610261016196E7CE
:104EE00000F0F8F84FF480705C46CBF810004FF4F7
:104EF0000078CBF814804846DFF89090C9F800009D
:104F00008027CBF81470CBF81070CBF810801D48B8
:104F10004089401C80B200F0DDF878002061C4F8C0
:104F20001480C9F800A067612761C4F81080154893
:104F3000808900F0CFF878002061C4F81480C9F8A7
:104F4000006067612761C4F810800E488089401CAA
:104F500080B200F0BFF878002061C4F81480C9F86E
:104F6000005067612761C4F81080CEE69CB22146EC
:104F700000F0C8F8B8F80C000199BDE8FC4F00F04B
:104F8000C1B80000B4000020001001400C0C01402A
:104F90002DE9F84F82461F460C468B46580700D035
:104FA000012000EBD70079084843203AC0B202F054
:104FB000FF090026009041E00C2F10D0102F12D0D6
:104FC000182F3ED1204909EBC90001EB80004FF0BA
:104FD0000008855D28060AD51C4802880BE009EB0D
:104FE00049001B49F1E71B4901EB0910EFE70A985B
:104FF00028B91648428821465046FBF7F3FE68065A
:10500000050E1548641CA4B24088A04219D9A4EB2F
:105010000B00B84209D10AF101001FFA80FA0E48CC
:105020005C46018851450CD906E008F1010000F00A
:10503000FF08B8F1080FCDD3761CF6B2009886426F
:10504000BAD3BDE8F88F0000608100081C00002082
:10505000FC760008707B0008B40000202DE9F84FB2
:10506000044600F0FF0810190D46DDE90A761FFA24
:1050700080FA58191FFA80F94FF0000B11E05445DF
:1050800002D3E819444685B24D450FD23B46294626
:105090002046CDF800B0FFF77BFF04EB570084B249
:1050A000761C3278A2F120005E28E8D9BDE8F88F9E
:1050B00006494FF480720A614A154A61044B186030
:1050C0008020486108610A617047000000100140BB
:1050D0000C0C014006494FF480724A614A154A613E
:1050E000044B18608020486108610A617047000025
:1050F000001001400C0C014001480089FFF7EABF95
:10510000B400002010B50C46FFF7E4FF06484FF44A
:10511000807101614215426104490C608021416146
:105120000161026110BD0000001001400C0C014043
:1051300038B50121242000F063F84FF48074ADF8F5
:10514000004010208DF8030003200C4D8DF8020064
:1051500069462846FBF734FC21462846FBF7B1FC9C
:105160000420074CADF8000069462046FBF728FCF8
:1051700004212046FBF7A5FC38BD000000080140D3
:1051800000140140FEE7704730B50F23C278017864
:105190000125F2B1144A126801F1E02102F4E06243
:1051A000C2F5E062120AC2F10404D3404278A24080
:1051B00084781C401443220181F80024007800F018
:1051C0001F018D404009800000F1E020C0F800512F
:1051D00030BD01F01F0085404809800000F1E0204B
:1051E000C0F8805130BD00000CED00E002490843DA
:1051F00002490860704700000000FA050CED00E06D
:10520000044A0029916901D0014300E08143916182
:10521000704700000010024030B5204A5168204B12
:1052200011F00C0103D0042901D0082901D003603A
:1052300012E05168536801F470114FF0020413F446
:10524000803F04EB914102D053689B0301D5154B7D
:1052500000E0134B5943016051680F2303EA111119
:10526000114B5C5C0168E14041605468072505EA28
:1052700014241C5D21FA04F48460546805EAD424E3
:105280001B5DD940C1605268032303EA9232064B8A
:105290001B1F9A5CB1FBF2F1016130BD00100240AE
:1052A00000127A0000093D00300000200CB50022F9
:1052B000264800920192016841F4803101604FF468
:1052C000A063016801F4003101910099491C00912B
:1052D000019911B900999942F3D10168890333D535
:1052E000012101911A490A6842F010020A600A6815
:1052F00022F003020A600A6842F002020A60416872
:10530000416041684160416841F4806141604168A9
:1053100021F47C114160416841F4E8114160016869
:1053200041F08071016001688901FCD5416821F07C
:1053300003014160416841F0020141604168C1F3ED
:1053400081010229FAD10CBD01920CBD001002406E
:10535000002002404FF0E0210428086903D020F02B
:1053600004000861704740F00400FAE710B501F04E
:105370002BFE012803D0BDE8104001F019BB10BD81
:105380000F4810B5016841F00101016041680D4A04
:105390001140416001680C4A11400160016821F42C
:1053A00080210160416821F4FE0141604FF41F013A
:1053B0008160FFF77BFF05494FF00060086010BD7A
:1053C000001002400000FFF8FFFFF6FE08ED00E0CD
:1053D00010B5084C0121204600F039F8012802D10F
:1053E00005A0FAF76BFF2046BDE81040012100F050
:1053F0002BB800000004004054494D33CAE4B3F612
:105400002E2E2E2E2E2E2E0D0A00000010B5084C2A
:105410000121204600F01BF8012802D105A0FAF76F
:105420004DFF2046BDE81040012100F00DB80000FE
:10543000000C004054494D35CAE4B3F62E2E2E2EF2
:105440002E2E2E0D0A000000C9430182704702462D
:105450000020138A92890B4202EA010202D0002A3C
:1054600000D001207047000070B5154C40F2255166
:10547000204600F035F800280ED0204600F0BEF897
:10548000104AC1B21088030406D444044FF000034C
:1054900006D50A2901D0138070BD40F400400DE00C
:1054A0000D2909D0C0F30D04074D401C80B22955C9
:1054B0001080C728EFD870BD40F48040108070BDC8
:1054C0000038014024000020C2000020002981890A
:1054D00002D041F4005101E021F400518181704774
:1054E00070B501F01F0501260024C1F3421306FA2E
:1054F00005F2012B0FD0022B0FD0838A4FEA112126
:105500000088134206FA01F600EA060001D000B155
:105510000124204670BD8389F0E7038AEEE710B5C9
:10552000C1F3421301F01F040121A140012B07D058
:10553000022B07D01430002A026805D00A4304E089
:105540000C30F8E71030F6E78A43026010BD000027
:1055500030B50446008A85B00D464CF6FF71084010
:10556000E98801432182A0894EF6F3110840A988F9
:105570002A8911436A8902431143A181A08A4FF607
:10558000FF410840A9890143A1826846FFF744FE14
:105590001948844201D1039800E00298A1890904C6
:1055A00000EBC00101EB0010296801D5490000E0C3
:1055B0008900B0FBF1F06422B0FBF2F109010B09A4
:1055C0006FF018056B4300EB8300A3891D044FF0B7
:1055D000320306D503EBC000B0FBF2F000F0070089
:1055E00005E003EB0010B0FBF2F000F00F00084301
:1055F000208105B030BD0000003801408088C0F334
:1056000008007047FEE7704710B50420FFF7A2FEC0
:105610000C480D490D4A0068B0FBF1F3B0FBF1F105
:105620004FF47A7041431370012050804FF0E02016
:10563000026942F0020202614161016941F0010127
:10564000016110BD0800002040420F002000002032
:1056500070B5044601F0B8FC01280CD0094D6888EB
:10566000844203D3B4FBF0F000F076FF6888B4FB0B
:10567000F0F100FB11444FF47A706043BDE87040D4
:1056800000F002B82000002070B54FF0E0250021A6
:105690006C69094AAB6912785043AA699A42FCD0F6
:1056A00002D2A3EB020302E0A4EB02063344194446
:1056B00013468142F1D370BD2000002070B505462D
:1056C00000244FF47A7603E03046FFF7DDFF641CD8
:1056D000AC42F9D370BD000004490A885206FCD5DB
:1056E000024AC1B2121D118070470000003801400B
:1056F0001CB5114C00204FF49D73208073226E2145
:105700000520FBF753FB8223732219460520FBF784
:10571000E7FA1F202080102008A1CDE900010346F0
:105720006E226F210620FFF799FC4FF47A74204611
:1057300000F012FFFBE700001C0000205461736BB7
:10574000312052756E3A3030300000001CB54FF4F5
:105750004070FFF74BFDFFF757FF4FF4E13000F0CB
:1057600021FDFBF77DF8FFF7E3FCFBF765FC09493A
:105770000020C1F8A00108490120CDE90001020282
:10578000002306A1084801F0F3FB01F045F80020D2
:105790001CBD0000000021420000002073746172F3
:1057A000745F7461736B0000616100082DE9F04162
:1057B000184E0F460446F5683068001D00F042FDA3
:1057C00038B9306890F82C10012088403169814345
:1057D0003161601C07D137B13168BDE8F0410E4836
:1057E000091D00F067BD30682C44AC42446031684C
:1057F00005D2B06BBDE8F041091D00F043BD706BF0
:10580000091D00F03FFDB06A844200D2B462BDE8D9
:10581000F0810000400000209C0400202DE9F041B0
:10582000054600F053FD2D4EB068401CB060306856
:105830002B4F10B1706930B32BE03560B068012890
:1058400027D1002404EB840007EB800000F00CFD5E
:10585000641C202CF6D3234800F006FD21481430A8
:1058600000F002FD1F48283000F0FEFC1D483C30CF
:1058700000F0FAFC1B48503000F0F6FC1948706349
:105880001430B06305E03068E96AC06A884200D825
:105890003560706A0121401C70626864E86A326990
:1058A00081401143316100EB800007EB8000291D2E
:1058B00000F000FD00F046FD706900280CD0306853
:1058C000E96AC06A884207D207494FF080500860F1
:1058D000BFF34F8FBFF36F8FBDE8F0814000002012
:1058E000CC0100204C04002004ED00E010B500F0D5
:1058F000EDFC0E4C2068A0B90D4800F0B5FC0C483A
:10590000143000F0B1FC0A48E0601430206100223D
:105910001021052001F062F8206010B105A100F00F
:10592000E7FDBDE8104000F00DBD00007C00002048
:10593000B0040020546D72510000000070B5124E8A
:10594000124D1CE000F0B2FF306820B1002401F0DD
:1059500069FCA4B901E00124F9E700F0B7FCF068A4
:10596000C468201D00F06EFCA868401EA86068682E
:10597000401E686000F0E6FC204600F052F86868BF
:105980000028DFD170BD0000880400204000002006
:1059900030B4026C0B46002A0BD0C1681144C160C0
:1059A0004468A14201D30168C16030BC1846FAF7CF
:1059B00057BD30BC70472DE9F041856B1746044652
:1059C0000026026C82B1C7B1E068FAF749FDE168D0
:1059D000206C091AE1602268914202D26168081ABB
:1059E000E060022F16D017E02068A8B9606801F0C7
:1059F00073FB0646002060600EE0A068FAF730FDF9
:105A0000216CA0680844A0606168884204D32068C3
:105A1000A06001E005B16D1E6D1CA5633046BDE8B8
:105A2000F08110B50446006B00F0BEFC2046BDE8D6
:105A3000104000F0B9BC000010484FF4A0414207EC
:105A400006D0C01D0D4920F00700411AC1F5A04144
:105A50000B4A00230144C2E900030839103A21F03F
:105A6000070111604B600B600B1AC0E900139360D3
:105A70004FF000405360D06070470000D804002011
:105A8000A0000020074E4FF08054074DFFF756FF4F
:105A900030680128FAD92C60BFF34F8FBFF36F8FA6
:105AA000F4E70000CC01002004ED00E02DE9F04710
:105AB000DDE909840E461746824691009946089D05
:105AC000A522206BFAF711FD6FF00301206B01EBAB
:105AD0008701084420F00707780705D040F22B32F1
